:020000040800F2
:100000006807002001010008233300089B2A00082C
:1000100021330008050F00085138000800000000D7
:10002000000000000000000000000000273300086E
:10003000070F0008000000002533000829330008DE
:100040001B0100081B0100081B0100081B01000820
:100050001B0100081B0100081B010008090F000814
:100060001B0100081B0100081B0100081B01000800
:100070001B0100081B0100081B0100081B010008F0
:100080001B0100081B0100081B0100081B010008E0
:100090001B0100081B0100081B0100080F0F0008CE
:1000A0001B0100081B0100081B0100081B010008C0
:1000B000A93300081B0100081B0100081B010008F0
:1000C0001B0100081B0100081B0100081B010008A0
:1000D0001B0100081B0100083D3800081B01000837
:1000E0001B0100081B0100081B010008DFF80CD0F1
:1000F00000F098FC00480047CD4B0008680700203E
:100100000648804706480047FEE7FEE7FEE7FEE7B1
:10011000FEE7FEE7FEE7FEE7FEE7FEE7A5330008A1
:10012000ED000008202A04DB203A21FA02F0002129
:10013000704721FA02F3D040C2F1200291400843F7
:1001400019467047D2B201E000F8012B491EFBD2DC
:1001500070470022F6E710B513460A4604461946D2
:10016000FFF7F0FF204610BD30B505462A460B4686
:1001700012F8010B13F8014B08B1A042F8D01CB1E2
:10018000002802D06D1CF1E7284630BD421C10F853
:10019000011B0029FBD1801A704710B5002200E036
:1001A000521C835C8C5CA34201D1002BF8D1D8B2E5
:1001B000E1B2401A10BD00000FB400B58DB010A917
:1001C00009900B9000914FF0FF300A9000200C90A6
:1001D00005480690054807906A4609A80F9900F05F
:1001E000D7FA0DB05DF814FBAD070008CB07000887
:1001F0002DE9FF5F1D464FF0FF3BD5E901469146D3
:100200005F464FF00008A9697F1C01988847296A5A
:10021000824688470028F6D1BAF1FF3F0CD024F47B
:10022000C064002E19DD600614D5BAF12B0F09D079
:10023000BAF12D0F0ED103E0584604B0BDE8F09F8F
:1002400044F48064A9697F1C01988847761E824621
:10025000002E02DDBAF1300F03D0B9F1000F26D025
:1002600032E0A969761E44F400747F1C0198884727
:100270008246002E05DDBAF1780F06D0BAF1580F8C
:1002800003D0B9F1000F10D01EE0B9F1000F02D079
:10029000B9F1100F18D1A969761E24F400747F1CDF
:1002A000019888478246102002E0082000E00A20DA
:1002B000814609E008FB0908A969761E44F4007428
:1002C0007F1C019888478246002E05DD494650462E
:1002D00000F04AFA0028EDDAE96901988847A0059C
:1002E00002D46FF00100A8E7E00725D1600613D51E
:1002F000600502D5C8F1000000E0404629680A1DEB
:100300002A600968220501D5087015E0220701D589
:10031000088011E008600FE02868011D296000686E
:10032000210502D580F8008006E0210702D5A0F85B
:10033000008001E0C0F8008038467EE72DE9FF5FCD
:10034000D2E901A74FF00008916999461446DDF8FB
:1003500038B0464601988847054659EA0B0005D053
:1003600009E0A169761C019888470546216A28465C
:1003700088470028F5D1681C03D05FEACA7005D011
:1003800015E04FF0FF3004B0BDE8F09F2068011D7C
:100390002160D0F800800AE05FEACA7001D108F855
:1003A000015BA169761C7F1E019888470546002FD6
:1003B0001ADD681C18D0B9F1000F0DD0E81705EB55
:1003C000D060421120F01F0059F822102A1A012093
:1003D00090400142E0D107E0BBF1000FDCD1216A7F
:1003E000284688470028D7D0E16901988847BBF1A3
:1003F000000F07D1002E05DD5FEACA7002D100218F
:1004000088F80010A068B84203DDBBF1000F03D0EC
:1004100017B16FF00100B6E73046B4E770B5064695
:1004200003F04CFA046805460A220021304600F029
:10043000DDF92C6070BD2DE9FE4F804681EA030096
:10044000C00F0C46009021F0004123F00045B8EBAE
:100450000200A94105D24046214690461C460B4663
:10046000024623F00040104347D0270DC7F30A008F
:10047000C3F30A510290401A019040286BDAC3F38B
:10048000130040F4801B0098924620B10023D2EB69
:10049000030A63EB0B0B01985946C0F1400250462A
:1004A00000F041F906460D4650465946019A00F0C3
:1004B00049F910EB08006141002487EA115284EAEF
:1004C000E7731A4340D0009A62B3019A012A4FEAB7
:1004D000075215DC001B61EB02014FF0004202EAFB
:1004E0000752CDE90042001C41F5801132462B46EF
:1004F00000F0C3F903B0BDE8F08F40462146F9E7AC
:10050000001B61EB0201001C41F5801300185B41E8
:100510002018A2F5001747EB030140EAD570B61981
:100520006D4111E06D084FEA360645EAC0754FEAA5
:100530000752001B61EB0201001C41F580114908C4
:100540004FEA30000019514132462B4603B0BDE856
:10055000F04F00F083B90098012240000023D0EB57
:10056000020263EBE073009821464FEAE074B8EBB7
:10057000000061EB0401E9E783F000435BE781F0F1
:10058000004158E72DE9FE4F81EA030404F00044DE
:1005900021F0004100944FF0000B23F0004350EA9B
:1005A00001045ED052EA03045BD0C3F30A54C1F3E2
:1005B0000A552C44A4F2F3340194A0FB0254C1F375
:1005C000130141F48011C3F3130343F4801301FBBF
:1005D000024400FB034E840A970A44EA815447EA26
:1005E0008357A4FB076802958D0A05FB07854FEA30
:1005F000932C04FB0C542705029D4FEA065847EA4A
:100600001637B5EB08056EEB070C870E920E47EA1E
:10061000811742EA8312A7FB0201B6EB0B0164EBE0
:1006200000042B0D43EA0C335E1844EB1C50DA46F1
:100630005146E7FB0201C5F313044FEA0B3343EACB
:1006400014534FEA0432019C43EA0603A4F10C045C
:100650000294009CCDE900B400F00FF903B0BDE8AE
:10066000F08F00200146F9E730B5041E71F1000457
:1006700004DB4FF00044404264EB0101141E73F1AF
:10068000000405DB1C464FF00043524263EB0403B9
:10069000994208BF904230BD30B50B46014600205C
:1006A0002022012409E021FA02F59D4205D303FA34
:1006B00002F5491B04FA02F52844151EA2F10102B5
:1006C000F1DC30BD2DE9F05F0546002092469B46E7
:1006D00088460646814640241BE028464146474658
:1006E0002246FFF71FFD53465A46C01A914110D3C8
:1006F00011461846224600F016F82D1A67EB01083D
:100700004F4622460120002100F00DF817EB0009AA
:100710004E41201EA4F10104DFDC484631462A4642
:100720004346BDE8F09F202A04DB203A00FA02F19C
:10073000002070479140C2F1200320FA03F31943CF
:1007400090407047202A06DBCB17203A41FA02F08E
:1007500043EAE07306E041FA02F3D040C2F120021E
:1007600091400843194670473A2800D2303820F0AB
:100770002002412A01D3A2F13700884201D34FF071
:10078000FF307047026811441378016018467047C3
:10079000D16004495161044911620021116111467F
:1007A00000F060B985070008510A0008426842B1AC
:1007B000016811F8013B23B1521EC0E9001218462E
:1007C00070470121C160881E704742685AB1C368F2
:1007D000016843B983688B4205D0491E521CC0E9A9
:1007E0000012002070474FF0FF3070472DE9F047AE
:1007F00091460F4680460446002614F8015B2DB151
:1008000000F022F90068405DC007F6D12B2D02D020
:100810002D2D18D0641E4A463946204600F0B8FAFD
:1008200027B13968A14201D1C7F8008071054FF0A6
:1008300002040BD54042002803DD03F03FF80460BA
:10084000A007BDE8F08746F48066E4E70028F8DA00
:1008500003F034F804606FF00040F2E710B5141EA6
:1008600073F1000408DA401C41F1000192185B4169
:100870001A4301D120F0010010BD2DE9F04D924640
:100880009B4611B1B1FA81F202E0B0FA80F2203257
:100890009046FFF748FF04460F4640EA0A0041EA47
:1008A0000B0153465A46084313D0114653EA010040
:1008B00019D0C8F140025046FFF734FC05460E46F9
:1008C000504659464246FFF72EFF084305D0012007
:1008D00004E020463946BDE8F08D0020054346EA95
:1008E000E0762C4337430A986305E40AA0EB08003E
:1008F0000022FD0A44EA47540A3002D5002001468E
:10090000E9E7010510196941DDE908450019694168
:10091000BDE8F04DA2E72DE9F04D81EA030404F0B3
:10092000004B21F0004514464FF0000A23F000412F
:1009300050EA050220D054EA01021DD0C5F30A573F
:100940000246C5F31303C1F31300C1F30A5640F482
:10095000801543F48013A7EB0608101BD64608F257
:10096000FD3873EB050002D308F1010801E092188D
:100970005B41B8F1000F03DA00200146BDE8F08DBD
:1009800000204FF48011064684460EE0171B73EBDF
:10099000050705D3121B63EB050306434CEA010C64
:1009A00049084FEA300092185B4150EA0107EDD147
:1009B00052EA030012D082EA040083EA05010843E8
:1009C00005D0101BAB4106D20122002306E0002215
:1009D0004FF0004302E06FF0010253101AEB0600E3
:1009E0004CEB085110EB0A0041EB0B01BDE8F04D58
:1009F000FFF734BFC1F30A52C1F3130140F2FF33D2
:100A000041F480119A4202DA00200146704740F218
:100A100033439A42A2F2334202DC5242FFF782BBD6
:100A2000FFF781BE064C074D06E0E06840F0010389
:100A300094E8070098471034AC42F6D3FFF75AFB0E
:100A4000549800087498000800487047DC95000826
:100A500010B50446FFF7F8FF0068005D00F00100E4
:100A600010BD00002DE9F34F8BB04FF0000801F1ED
:100A70000C000C464FF0010B46460DF1080A0190A0
:100A80006269012101989047051E2DD0252D2CD09B
:100A9000216A8847C0B16269012101989047216AA3
:100AA00088470028F7D1411E62690198904700E00D
:100AB000761CA1690B988847216A88470028F7D1DE
:100AC000E1690B988847DBE7A1690B9888470746DF
:100AD000A84201D1761CD3E7E1690B9888477F1CB7
:100AE00002D1B8F1000F6FD046E1002762693D46A0
:100AF0003946019890472A2804D16269012101985A
:100B000090470125DFF8849262690121019890479E
:100B1000A0F130010A290AD24F45E5DC07EB870135
:100B200000EB4107303FDFD445F01005ECE7E90664
:100B300001D46FF000476C280AD04C2814D06828E4
:100B400015D06A280DD074281CD07A281AD01DE040
:100B500062690121019890476C2802D045F0040594
:100B600014E045F002050DE045F020050AE0626959
:100B7000012101989047682802D045F0080505E05A
:100B800045F400656269012101989047C4E9015765
:100B900065283DD019DC58287AD00CDC452837D0A0
:100BA00004DC252826D0412831D131E046282FD039
:100BB00047282CD12CE05B2877D0612828D06328E7
:100BC0007CD0642823D15AE0D0E06F2848D008DCDC
:100BD00066281DD067281BD0692821D06E2816D121
:100BE00027E0702845D0732868D0752847D078282A
:100BF0000DD14DE0A1690B988847054625283FF4A3
:100C000069AFE1690B9888476D1C3FF46AAFB3E0A8
:100C100023466A466FF001000B99AFF300809EE017
:100C200045F040006060A80723464FF0000236D42C
:100C30003EE0E8077FF447AF2068011D21600068AF
:100C4000290501D506701BE7290701D5068017E79E
:100C5000A90703D5F117C0E9006111E706600FE7A6
:100C600045F040006060A80723464FF0080216D404
:100C70001EE040F60E0125EA0100606016E045F036
:100C800040006060A80723464FF00A0207D40FE037
:100C900045F040006060A80708D5234610226FF099
:100CA00001000B99AFF3008059E007E023461022C2
:100CB0006FF001000B99FFF79BFA50E04FF000092D
:100CC0004F464B46632802D05B2806D040E0E8063A
:100CD00001D40120A06001273AE062690121019856
:100CE00090475E2805D14FF0010962694946019895
:100CF0009047216939B900210A46534643F821201B
:100D0000491C0829FADBB0B3216969B9C11700EBA6
:100D1000D16253110AEB830122F01F02821A0120D3
:100D20000B68904003430B60626901210198904772
:100D30005D28E8D1B9F1000F09D00020514651F8E3
:100D40002020D24341F82020401C0828F7DB02ABCA
:100D5000224600976FF001000B99FFF7EFFA002889
:100D60000CDA401C08D1BBF1000F05D04FF0FF306A
:100D70000DB0BDE8F08FFFE74046F9E7E90701D184
:100D800008F1010806444FF0000B79E6CCCCCC0CFE
:100D90002DE9F05F82460078002715468B460AF160
:100DA0000104B946302801D09DB113E014F8010BBD
:100DB0000127782803D0582801D045B10AE00DB1A9
:100DC000102D07D10027102514F8010B02E008258B
:100DD00000E00A250026B0460EE005FB080005FBF2
:100DE00006F1012701EB10461FFA80F8B6F5803FA7
:100DF00000D3B94614F8010B2946FFF7B5FC0028CB
:100E0000EBDABBF1000F05D00FB1641E00E05446D1
:100E1000CBF80040B9F1000F06D002F04FFD0221DF
:100E20000160C81EBDE8F09F48EA0640FAE70000EE
:100E300070B5044600688168C943C90717D1816845
:100E400021F00101816000F0D5FC05460AE000BFF9
:100E500000F0D0FC401B022804D920688068C04301
:100E6000C00706D020688068C043C007F0D00020CB
:100E700070BDA06A40F01000A062E06A40F001007E
:100E8000E062012070BD0000F8B50026044600961F
:100E900000688168C943C9072DD0816841F001010C
:100EA0008160164816490068B0FBF1F000E0401E72
:100EB00000900028FBD100F09DFC054616E000BF25
:100EC00000F098FC401B022810D920688068C043BD
:100ED000C0070BD0A06A40F01000A062E06A40F0AA
:100EE0000100E06284F824600120F8BD2068806879
:100EF000C043C007E4D10020F8BD00000C00002072
:100F000040420F00FEE77047022000F06DBB40201A
:100F100000F06ABB72B6FEE7F8B5002504460095FE
:100F200090F8240001280BD0012084F824002046EA
:100F3000FFF77EFF2046FFF7A7FF060002D050E034
:100F40000220F8BDA06A20F4885040F00200A062A0
:100F5000022000F0EDFC25490968B1FBF0F04000EB
:100F600000E0401E00900028FBD12068816841F01D
:100F70000801816000F03EFC074608E000F03AFC02
:100F8000C01B0A2803D920688068000715D4206890
:100F900080680007F2D42068816841F00401816014
:100FA00000F028FC074612E000F024FCC01B0A28D1
:100FB0000DD920688068400709D5A06A20F002009A
:100FC00040F01000A06284F824500120F8BD206891
:100FD00080684007E8D4A06A20F0020040F00100D9
:100FE000A06284F824503046F8BD00000C000020B8
:100FF000F8B50024009490F824202546012A12D048
:10100000012280F824204A681F23072A0DD206688F
:10101000776B521E02EB820293409F430B68934012
:101020001F43776319E00220F8BD06680D2A0AD233
:10103000376BD21F02EB820293409F430B689340B1
:101040001F43376309E0F76A0D3A02EB82029340CF
:101050009F430B6893401F43F7620A6807230668A3
:101060000A2A0AD3F7680A3A02EB420293409F43E6
:101070008B6893401F43F76008E0376902EB420238
:1010800093409F438B6893401F4337610A68102A3F
:1010900001D0112A20D1124B02689A4217D19368CD
:1010A0001B0219D4936843F4000393600968102964
:1010B00012D10C490C4A0968B1FBF2F101EB810134
:1010C000490000E0491E00910029FBD104E0816A3B
:1010D00041F020018162012480F824502046F8BDAF
:1010E000002401400C00002040420F000068C06C4A
:1010F000704700002DE9F0414FF0000704003D4625
:101100007ED0A06A002628B9E66284F824602046D2
:1011100000F07EF82046FFF78BFEA16AC90600D4D6
:1011200020B1A06A40F01000A06269E0A16A21F439
:10113000885141F00201A1626268E169237B0A43A0
:1011400047EA43010A43A1684FF48077B94209D0C6
:10115000012907D05FF0000194F814C0BCF1010F21
:1011600002D00AE03946F7E7F3B1A36A43F020035F
:10117000A362E36A43F00103E3622368D3F804C087
:101180002CF4694C4CEA010CC3F804C021688B684C
:10119000DFF870C003EA0C0313438B60A168B94207
:1011A0000BD0012909D00CE0DFF85CC0A3690CEB7F
:1011B00043330B4343F40061DFE7218A0D05A5F5B6
:1011C00080152168CB6A23F470032B43CB6221681E
:1011D00089680E4B1940914208D1E662A16A21F05C
:1011E000020141F00101A162BDE8F081A06A20F096
:1011F000020040F01000A062E06A40F00100E062EE
:101200000120F1E7FDF7E1FF00E0FFFFFE0E1FFF09
:1012100010B586B000210091019102910391006800
:101220001549884226D11548816941F400718161D0
:10123000816901F400710491816941F004018161C7
:10124000816901F004010491816941F00801816123
:101250008069032400F0080004908020CDE9000498
:101260006946074800F0CCF90094694605480194A6
:1012700000F0C6F906B010BD002401400010024085
:1012800000080140000C01402DE9F84300270D46FD
:101290000446009700F0AEFA804620688168C905D0
:1012A00008D5A06A40F02000A06284F824700120D4
:1012B000BDE8F8834168C90503D4C06A10F4700F13
:1012C0002AD0022000F034FB3B490968B1FBF0F65C
:1012D0002068036939490B424FEA61014FEAA112C4
:1012E0001FD1C3684FEA611C13EA0C0F19D10369BF
:1012F0000B4225D1C068104222D1142023E0681C83
:101300000AD02DB100F076FAA0EB0800A84203D96C
:1013100020680068800725D5206800688007EED522
:101320002DE003690B4202D1C168114206D0026967
:1013300023490A4206D1C068084203D1542002E082
:10134000292000E0FC204643009816E0681C11D0DC
:101350002DB100F04FFAA0EB0800A8420AD900987E
:10136000B04207D2A06A40F00400A06284F8247062
:1013700003209DE70098401C0090B042E6D321680E
:101380006FF012000860A06A40F40070A06220684C
:101390008068C0F3424007280CD1207B50B9A06A76
:1013A00020F48070A062A06AC00403D4A06A40F058
:1013B0000100A06200207BE70C0000202449922459
:1013C0004992240070B5044690F8240001280DD0FD
:1013D000012084F824002046FFF756FD02004FF05C
:1013E000000005D084F82400104670BD022070BDB6
:1013F000A16A40F20123994341F48071A1621F4D1B
:1014000023681F49AB4218D10E6816F4702F14D010
:10141000A66A46F48016A6620E68760505D5A66A09
:1014200026F4005646F48056A662A66AF6040AD54B
:10143000E66A26F00606E66206E0A66A26F480164C
:10144000A6625E68E9E7E06284F824006FF00200BB
:10145000186020688368C3F34243072B05D1A84274
:1014600008D1096811F4702F04D0816841F480110B
:101470008160B9E7816841F4A001F9E700280140E3
:101480000424014010B590F821100022022905D053
:101490000421816380F82020012010BD01680B68C1
:1014A00023F00E030B6001680B6823F001030B604F
:1014B00090F84030C46B012101FA03F3636080F8B7
:1014C000211080F82020104610BD000010B590F8C3
:1014D00021100024022903D00421816301243DE06E
:1014E00001680A6822F00E020A6001680A6822F0A8
:1014F00001020A601A4A0168914201D1012121E0EA
:10150000174A1432914201D110211BE0144A2832AB
:10151000914201D1891515E0114A3C32914201D125
:1015200089140FE00E4A5032914202D14FF48031BB
:1015300008E00B4A6432914202D14FF4801101E07D
:101540004FF08071064A083A5160012180F821105D
:10155000002180F82010416B01B18847204610BD62
:101560000800024070B5044600F044F90546601CCE
:1015700002D004480078044400F03CF9401BA0422B
:10158000FAD370BD0000002070B5044600F032F9B7
:10159000022C01D0012100E00021104A52F8213034
:1015A000C31AB3F57A7F16D942F821000C48151FEB
:1015B000022C02D0402C07D00DE0022100F010F9DF
:1015C00048B90120287006E0402100F009F910B95F
:1015D0006878401C68700348046070BD48000020B3
:1015E0000008014014040140044910B50A68024291
:1015F00002D00860FFF7C8FF10BD000014040140CE
:101600002DE9F84FDFF8B8910024A9F1040B234627
:101610000F2709F1040AABF1040EC9E00125A5402A
:101620002A40AA427DD1674ED1F804C0ACEB06082F
:10163000B44532D014DCBCF1030F3AD009DCBCF164
:10164000000F2AD0BCF1010F1CD0BCF1020F31D128
:101650001DE0BCF1110F17D0BCF1120F2AD119E017
:10166000B8F5881F19D006DCB8F5803F15D0B8F55D
:10167000801F1FD111E0B8F5001F0ED0B8F5041F70
:1016800018D10AE0CB6815E0CB681B1D12E0CB68CF
:1016900008330FE0CB680C330CE08B682BB1012BC7
:1016A0004FF0080303D0456104E0042302E0056124
:1016B00000E00023FF2A01D8064601E000F10406FD
:1016C0004FEA840501D9A5F12005D6F8008007FA74
:1016D00005FC28EA0C0803FA05F548EA0508C6F8EF
:1016E00000804D68ED0062D5374DAE6946F00106C9
:1016F000AE61AD6924F0030605F001050095334D98
:1017000006EB050CDCF80850A607360F07FA06F8BA
:1017100025EA0805DFF8B880404503D14FF00008FE
:1017200017E044E0DFF8AC80404502D14FF00108FB
:101730000FE0DFF8A480404502D14FF0020808E036
:10174000DFF89880404502D14FF0030801E04FF0E8
:10175000040808FA06F848EA0508CCF808804D683D
:10176000D9F80060ED024D4601D5164300E09643DE
:101770002E604D68DAF80060AD02554601D516437B
:1017800000E096432E604D68DBF80060AD035D46D7
:1017900001D5164300E096432E604D68DEF80060E8
:1017A000ED03754601D5164300E096432E60641C98
:1017B0000D682A46E5407FF431AFBDE8F88F0000A0
:1017C0000804014000001110001002400000014018
:1017D00000080140000C01400010014000140140CD
:1017E0008068084000D0012070470AB1016170474D
:1017F0000904FBE7014880687047000000000020F2
:10180000024881680278114481607047000000201E
:10181000074810B5016841F010010160032000F095
:1018200075F8002000F006F800F024F8002010BD44
:101830000020024070B50D4D04464FF47A712878AF
:10184000B1FBF0F00A490968B1FBF0F000F0A4FB2D
:1018500048B9102C07D200222146501E00F036F85D
:1018600000206C6070BD012070BD000000000020F1
:101870000C0000200C4808B5816941F0010181612C
:10188000816901F001010091C16941F08051C1619C
:10189000C06900F0805000900448416821F0E06188
:1018A00041F00071416008BD00100240000001409D
:1018B000002809DB00F01F0201219140400980004F
:1018C00000F1E020C0F8001170470000F0B40E4BAA
:1018D0001B680C46C3F30223C3F10705042D00D98E
:1018E0000425191D072901D2002300E0DB1E012673
:1018F00006FA05F1491E214099409E40761E164089
:101900003143F0BC01F0CABF0CED00E0064900F025
:10191000070208684FF6FF03184040EA0220034A16
:1019200010430860704700000CED00E00000FA056D
:1019300010B501460020234C012922D0022939D0BC
:1019400010291DD161682268D20119D51E48C1F342
:101950008342C903805C0AD561681B4AC1F34041D8
:10196000921E515C194AB2FBF1F1484301E018495B
:1019700048436168490203D440000321B0FBF1F001
:1019800010BD226AC2F30121012903D1920701D5BA
:10199000C80310BD022905D1626A920702D549F633
:1019A000404010BD0329FCD121688903F9D54FF2CD
:1019B000244010BD00F02AF96168C1F38131491C4F
:1019C0004900DBE700100240685E000800127A0060
:1019D00000093D002DE9F84305460078354CC00765
:1019E00054D0E0690026C00008D4E06940F080507F
:1019F000E061E069012600F0805000902E48016807
:101A0000C90512D40168804641F480710160FFF776
:101A1000F1FE074605E000BFFFF7ECFEC01B64289F
:101A200023D8D8F80000C005F6D5206A10F440701D
:101A300021D0A98801F4407181421CD0206A1F493D
:101A4000012220F440700A6000220A602062C00770
:101A500011D0FFF7CFFE074641F2883808E000BFFB
:101A6000FFF7C8FEC11B414502D90320BDE8F8833A
:101A7000206A8007F4D5206A696820F44070084322
:101A800020621EB1E06920F08050E0612878800774
:101A900005D56068A96820F4404008436060287854
:101AA000C00605D56068E96820F4800008436060DE
:101AB0000020DBE70010024000700040400442427A
:101AC0002DE9F0470F46050061D0434E306800F025
:101AD0000700B84209D2306820F007003843306070
:101AE000306800F00700B84251D128683B4C8107AC
:101AF00012D5400703D5606840F4E0606060287844
:101B0000000703D5606840F4605060606068A968B1
:101B100020F0F000084360602878C00728D068688B
:101B2000012810D02168022810D0890700292EDA58
:101B3000616821F0030101436160FFF75BFE8046AD
:101B400041F288390DE021688903EFE78901EDE76B
:101B5000FFF750FEA0EB0801494502D90320BDE87C
:101B6000F0876068696800F00C00B0EB810FEFD17E
:101B7000306800F00700B8420BD9306820F0070049
:101B800038433060306800F00700B84201D00120CF
:101B9000E5E72878400705D56068E96820F4E0604B
:101BA000084360602878000706D56068296920F43A
:101BB000605040EAC100606000F038F86168084A8F
:101BC000C1F30311515CC84006490860064800682B
:101BD000FFF730FE0020C2E7002002400010024064
:101BE000785E00080C00002004000020044805492D
:101BF00000684968044AC1F30221515CC84070473B
:101C00000C00002000100240885E000804480549CE
:101C100000684968044AC1F3C221515CC84070475A
:101C20000C00002000100240885E00080E4A516837
:101C30000E4801F00C03042B11D0082B0FD10C48D7
:101C4000C1F38343C903C05C0AD55168084AC1F394
:101C50004041921E515C054A5043B0FBF1F0704781
:101C600004494843704700000010024000127A0007
:101C7000565E000800093D002DE9F84F040070D0C1
:101C80002078C04DC00749D06868C0F381000128A2
:101C900007D06868C0F38100022809D16868C003D2
:101CA00006D52868800339D560680028E7D035E07C
:101CB0006068B0F5803F0BD010B1B0F5A02F11D007
:101CC000286820F480302860286820F4802002E012
:101CD000286840F480302860606890B1FFF78AFD82
:101CE00006460AE0286840F480202860F0E700BF3C
:101CF000FFF780FD801B642873D828688003F7D520
:101D00000CE0FFF777FD064605E000BFFFF772FD28
:101D1000801B6428F0D828688003F7D420789A4E76
:101D200080074FF001094FF0000839D5686810F0BE
:101D30000C0F07D06868C0F38100022809D16868D9
:101D4000C00306D42868800714D52069012808D16B
:101D500010E02069B0B1C6F80090FFF74BFD0746D0
:101D600005E00AE1FFF746FDC01B0228C4D8286839
:101D70008007F7D52868616920F0F80040EAC100C3
:101D800028600DE0C6F80080FFF734FD074604E048
:101D9000FFF730FDC01B022823D828688007F7D43E
:101DA000207800072CD57948A169D9B1C0F80090F6
:101DB000FFF720FD074604E0FFF71CFDC01B0228CB
:101DC0000FD8686A8007F7D571484FF4FA51006858
:101DD000B0FBF1F0009000BF0098411E0091FAD2D4
:101DE0000EE080E0C0F80080FFF704FD074604E045
:101DF000FFF700FDC01B022875D8686A8007F7D47A
:101E00002078400760D5E8690027C00008D4E86959
:101E100040F08050E861E869012700F080500090B0
:101E20005C480168C90513D40168834641F4807198
:101E30000160FFF7DFFC824606E000BFFFF7DAFC37
:101E4000A0EB0A0064284ED8DBF80000C005F5D5E9
:101E5000E06801280AD008B1052813D0286A20F0CC
:101E600001002862286A20F0040002E0286A40F09D
:101E700001002862E06841F2883B98B1FFF7BAFCA4
:101E800082460BE0286A40F004002862EEE700BFBB
:101E9000FFF7B0FCA0EB0A0159455AD8286A800721
:101EA000F6D50CE0FFF7A6FC824605E0FFF7A2FCA2
:101EB000A0EB0A0159454CD8286A8007F6D41FB117
:101EC000E86920F08050E861E06988B36968C1F38F
:101ED0008101022944D00228C6F8608004D0FFF7AF
:101EE00089FC044638E034E0FFF784FC074604E050
:101EF000FFF780FCC01B02282BD828688001F7D48C
:101F0000206AB0F5803F05D16868A16820F40030F0
:101F100008436860D4E908010843696821F4741132
:101F200008436860C6F86090FFF764FC044606E06A
:101F300025E000BFFFF75EFC001B022809D82868D7
:101F40008001F7D51BE000BFFFF754FC001B0228FF
:101F500002D90320BDE8F88F28688001F4D40EE090
:101F60000128F7D06868226A00F48031914204D1D8
:101F7000616A00F47010884201D00120EAE7002075
:101F8000E8E70000001002400000424280044242A4
:101F90000C0000200070004010B5401EB0F1807FA2
:101FA00001D3012010BD4FF0E02460610F216017C4
:101FB00001F074FC0020A06107202061002010BD0A
:101FC0007047704770B590F83C20012A26D0012454
:101FD00080F83C40022280F83D2003685A689D68E2
:101FE00022F070060A6832435A600D4B02689A422A
:101FF00008D0B2F1804F05D00A4B9A4202D00A4B6A
:102000009A4204D1496825F080031943916080F811
:102010003D40002180F83C10084670BD022070BD94
:10202000002C0140000400400008004010B50400EE
:1020300003D094F83D0010B107E0012010BD00204E
:1020400084F83C00204600F01FF8022084F83D0090
:10205000211D206801F0AEF9012084F8460084F8C3
:102060003E0084F83F0084F8400084F8410084F882
:10207000420084F8430084F8440084F8450084F862
:102080003D00002010BD000008B50068B0F1804F91
:1020900012D10A48C16941F00101C161C069002241
:1020A00000F00100009011461C20FFF70FFCBDE876
:1020B00008401C20FFF7FCBB08BD000000100240D8
:1020C00090F83D10012901D001207047022180F8CD
:1020D0003D100168CA6842F00102CA6000680B49FD
:1020E000884208D0B0F1804F05D00949884202D01B
:1020F0000849884204D1816801F00701062903D00C
:10210000016841F00101016000207047002C01408E
:10211000000400400008004070B5044690F83C0000
:102120000025012817D0012684F83C60022084F89D
:102130003D002068826822F0770222F47F428260AC
:102140000868502838D00DDC20284FD005DC90B32B
:10215000102811D14AE0022070BD302846D0402816
:102160000AD13BE060282FD070280DD0B0F5805FF9
:1021700003D0B0F5005F12D0012584F83D60002047
:1021800084F83C00284670BDCB68D1E90121206865
:1021900001F053F92068816841F0770109E0CB68CC
:1021A000D1E90121206801F048F92068816841F4F3
:1021B00080418160E1E719E0CA684968206801F060
:1021C000F1F95021206806E0CA684968206801F0EA
:1021D000FAF96021206801F03AF9CEE7CA68496847
:1021E000206801F0DFF940212068F4E72268014609
:1021F0001046F0E7704770B50446006801694FF07B
:102200000005C943890715D4C168C943890711D49A
:10221000E91E01610120207720688069800720463F
:1022200002D0FFF7E7FF04E000F0BCF8204600F022
:102230004EF9257720680169C943490717D4C16859
:10224000C943490713D46FF00401016102202077CC
:102250002068806910F4407F204602D0FFF7CAFF53
:1022600004E000F09FF8204600F031F9257720685F
:102270000169C943090716D4C168C943090712D4C3
:102280006FF008010161042020772068C069800791
:10229000204602D0FFF7AEFF04E000F083F82046AE
:1022A00000F015F9257720680169C943C90617D4DC
:1022B000C168C943C90613D46FF010010161082039
:1022C00020772068C06910F4407F204602D0FFF7D5
:1022D00091FF04E000F066F8204600F0F8F825775A
:1022E00020680169C943C90708D1C168C943C90742
:1022F00004D1891E0161204600F038F92068016987
:10230000C943090609D4C168C943090605D46FF059
:10231000800101612046FFF753FE20680169C9432F
:10232000490609D4C168C943490605D46FF0400184
:102330000161204600F03AF920680169C943890625
:102340000BD4C168C943890607D46FF0200101612D
:102350002046BDE87040FFF734BE70BD00B585B0C3
:10236000002100910191029103910068B0F1804F2A
:1023700011D10A48816941F004018161806969468F
:1023800000F00400049001200090022001900390CE
:102390000348FFF735F905B000BD0000001002400A
:1023A00000080140704770B5044690F83C000026D4
:1023B0000D4601280FD0012084F83C006AB1042AA0
:1023C0001DD0082A2FD00C2A3FD00126002084F8E7
:1023D0003C00304670BD022070BD206801F040F81E
:1023E0002068816941F0080181612068816921F0DC
:1023F00004018161206881692A69114311E0206824
:1024000001F056F82068816941F40061816120681B
:10241000816921F480618161206881692A6941EACA
:1024200002218161D2E7206801F06EF82068C1695D
:1024300041F00801C1612068C16921F00401C16156
:102440002068C1692A69114311E0206801F088F809
:102450002068C16941F40061C1612068C16921F44B
:102460008061C1612068C1692A6941EA0221C161B4
:10247000ACE710B5040003D094F83D0010B107E0BC
:10248000012010BD002084F83C00204600F01EF81A
:10249000022084F83D00211D206800F08BFF012000
:1024A00084F8460084F83E0084F83F0084F8400039
:1024B00084F8410084F8420084F8430084F8440022
:1024C00084F8450084F83D00002010BD7047704737
:1024D00010B50446022249B104290ED0082913D0B0
:1024E00094F84100012816D0012010BD94F83E0058
:1024F0000128F9D184F83E200FE094F83F0001282C
:10250000F2D184F83F2008E094F840000128EBD194
:1025100084F8402001E084F841200122206800F086
:102520007FFF0F492068884203D1426C42F4004289
:1025300042642068884208D0B0F1804F05D0094934
:10254000884202D00849884204D1816801F007011D
:10255000062903D0016841F001010160002010BD8F
:10256000002C014000040040000800400D490068B4
:102570000968884215D10C488188491C8AB20A2111
:10258000B2FBF1F301FB1323828001211BB9C1804F
:10259000018141708170B2F5FA7F02D30170002190
:1025A000818070478C000020300000207047704709
:1025B00070470000F8B5016804460868CA684B69AE
:1025C00010F00F0F4FF0000559D003F0010602F490
:1025D0009077374365D0C10705D0D10503D5616C2D
:1025E00041F001016164410705D5D90703D0616C51
:1025F00041F002016164810705D5D90703D0616C00
:1026000041F004016164010707D502F02001314364
:1026100003D0616C41F008016164616C00293AD01B
:10262000800604D5900602D5204601F00DF82068FA
:102630004069616CC0F38010090700D460B3204684
:1026400000F0DBFF20684069400621D52068143087
:1026500050E8001F21F0400140E80012002AF5D1A7
:10266000E06BA8B16D494163E06BFEF72FFF0028D6
:1026700011D0E06B416B01B0BDE8F0400847830624
:102680000FD593060DD52046BDE8F84000F0DCBF1D
:102690002046FFF78DFFF8BD2046FFF789FF6564F0
:1026A000F8BD266B2023012E7CD1C6067AD5D6062E
:1026B00078D508684868009048694FF002064006DF
:1026C00040D5E16B086840680004000CE8D0A28D9A
:1026D0008242E5D9E085886920282DD020680C3019
:1026E00050E8001F21F4807140E80012002AF5D163
:1026F0002068143050E8001F21F0010140E800126A
:10270000002AF5D12068143050E8001F21F0400164
:1027100040E80012002AF5D184F842302563206891
:102720000C3050E8001F21F0100140E80012002A90
:10273000F5D1E06BFEF7A6FE6663A08DE18D401A31
:1027400081B22AE0A08DE18D401A81B2E08D00288F
:10275000A6D00029A4D022680C3252E8000F20F441
:10276000907042E80007002FF5D12068143050E83F
:10277000002F22F0010240E80027002FF5D184F855
:102780004230256320680C3050E8002F22F0100200
:1027900040E80023002BF5D166632046FFF707FFD2
:1027A000F8BDFFE705062BD5150629D594F841009D
:1027B0002128F5D1A068B0F5805F01D12069B0B1C2
:1027C000206A411C2162216800784860E08C401E2C
:1027D0000004000CE084E3D12068C16821F080018E
:1027E000C1602068C16841F04001C160D8E7206A3B
:1027F0000088C0F308004860206A801C2062E5E77A
:102800004006CDD55006CBD5CA68204622F04002FE
:10281000CA6084F8413000F03FF9C1E7EB350008A9
:1028200070B5040004D094F84100002510B106E012
:10283000012070BD84F84050204600F023F8242089
:1028400084F841002068C16821F40051C16020462D
:1028500000F05CFF2068016921F49041016120686B
:10286000416921F02A0141612068C16841F40051A9
:10287000C1606564202084F8410084F842006563EB
:10288000002070BD70B586B00024009401940294BD
:1028900003942B4E03682B49022003222A4DB34296
:1028A00021D18B6943F480438B618B6903F48043AE
:1028B00004938B6943F004038B618969039201F0EF
:1028C000040104910102CDE9001069462846FEF793
:1028D00097FE2815CDE90004694628460294FEF7C4
:1028E0008FFE06B070BD194EB342FAD1CB6943F4E6
:1028F0000033CB61CB6903F4003304938B6943F05D
:1029000004038B618969039201F00401049104219D
:10291000CDE9001069462846FEF772FE0820CDE991
:102920000004694628460294FEF76AFE002211461A
:102930002620FEF7CBFF2620FEF7BAFFD1E70000E6
:1029400000380140001002400008014000440040EF
:102950002DE9F843044690F84200994616460D4684
:10296000202802D00220BDE8F883ADB1A6B1002036
:102970006064222184F842102063FEF73BFFA685A5
:102980008046E685A0684FF48057B84201D120699F
:1029900020B12E46002526E00120E4E7002622E0B3
:1029A0004346002220212046CDF8009000F00AFF87
:1029B00008B10320D7E726B1A068B8421BD038B1D0
:1029C00008E020684068C0F3080025F8020B07E023
:1029D000206980B12068406800F07F0006F8010B94
:1029E000E08D401EE085E08D0028D9D1202084F8BC
:1029F00042000020B7E720684068EFE770472DE904
:102A0000F843044690F841001F4616460D4620281C
:102A100002D00220BDE8F8837DB176B10020606469
:102A2000212084F84100FEF7E5FEA6848046E68476
:102A3000A068B0F5805F02D003E00120EAE72069DA
:102A400010B12E4600250EE000260CE08021204625
:102A500000F0B8FEA0B9AEB116F8010B21684860CD
:102A6000E08C401EE084E08C43464FF0000200976B
:102A70000028EBD14FF04001204600F0A3FE30B11A
:102A80000320C7E735F8020BC0F30800E6E7202073
:102A900084F841000020BDE77047FEE72DE9FE43C2
:102AA0000600DDE90A75DDF830800ED06AB167B145
:102AB0005DB161B15BB102A8CDE90005304602F01D
:102AC00095FA0446012804D017E0052415E00624F1
:102AD00013E00298305C02F037F8012805D1029922
:102AE000491C02912968891E29600299B8F1000FDA
:102AF0003144396001D088F800002046BDE8FE83EB
:102B0000FEB508AF97E870008DE87000FFF7C6FFCC
:102B1000FEBDF8B506004FF000000D4600900DD048
:102B200075B10A466946304602F081FF2A46694679
:102B3000304602F037FD28B101240BE0052415E0F2
:102B4000062413E02A466946304602F065FD044635
:102B500001280BD10098A84208D22A46694630467F
:102B600002F065FF0098A84200D002242046F8BD7C
:102B70002DE9F04107461C4615460E462A2000F076
:102B80002FFABF1CB8B200F021FAAD1CA8B200F0B9
:102B90001DFA2B2000F024FA761CB0B200F016FAD1
:102BA000641CA0B200F012FABDE8F0412C2000F045
:102BB00017BA10B514460B460246FFF7D9FF204658
:102BC000BDE8104000F002BA2DE9F04780461F46EC
:102BD000581E83B21646501E82B20C464046DDF89F
:102BE0002090FFF7C5FF0AE0454604E0484600F0A4
:102BF000EDF96D1CADB2B542F8D3641CA4B2BC4271
:102C0000F2D3BDE8F087000010B57E4C00224021D1
:102C10002046FEF7EAFD6420FEF7A4FC01224021D5
:102C20002046FEF7E2FD6420FEF79CFC01225102E3
:102C30002046FEF7DAFD6420FEF794FC112000F038
:102C4000CFF97820FEF78EFCB12000F0C9F90520FD
:102C500000F0DAF93C2000F0D7F93C2000F0D4F97C
:102C6000B22000F0BDF9052000F0CEF93C2000F0C4
:102C7000CBF93C2000F0C8F9B32000F0B1F90520F1
:102C800000F0C2F93C2000F0BFF93C2000F0BCF994
:102C9000052000F0B9F93C2000F0B6F93C2000F026
:102CA000B3F9B42000F09CF9032000F0ADF9C02086
:102CB00000F096F9282000F0A7F9082000F0A4F908
:102CC000042000F0A1F9C12000F08AF9C02000F032
:102CD0009BF9C22000F084F90D2000F095F9002046
:102CE00000F092F9C32000F07BF98D2000F08CF900
:102CF0002A2000F089F9C42000F072F98D2000F03C
:102D000083F9EE2000F080F9C52000F069F91A205F
:102D100000F07AF9362000F063F9C02000F074F971
:102D2000E02000F05DF9042000F06EF9222000F0B0
:102D30006BF9072000F068F90A2000F065F92E20F1
:102D400000F062F9302000F05FF9252000F05CF916
:102D50002A2000F059F9282000F056F9262000F02A
:102D600053F92E2000F050F93A2000F04DF90020E0
:102D700000F04AF9012000F047F9032000F044F97F
:102D8000132000F041F9E12000F02AF9042000F0BE
:102D90003BF9162000F038F9062000F035F90D2037
:102DA00000F032F92D2000F02FF9262000F02CF948
:102DB000232000F029F9272000F026F9272000F031
:102DC00023F9252000F020F92D2000F01DF93B20EB
:102DD00000F01AF9002000F017F9012000F014F9B2
:102DE000042000F011F9132000F00EF93A2000F051
:102DF000F7F8052000F008F9BDE81040292000F0A0
:102E0000EFB80000000C01402DE9FF4F81B00446EF
:102E1000DDF83C9000904FEA59074FF00008780722
:102E200000D0012000EBD70000FB09FB203AD0B214
:102E30000390029802994844401E83B2E019401E54
:102E400082B22046FFF794FE002553E0B9F10C0F43
:102E50002AD0B9F1100F2ED0B9F1180F2ED0B9F138
:102E6000200F49D12749039801EB8010002610F864
:102E700005A0109800284FF0010000FA06F000EAC3
:102E80000A0022D020B12046049A0299FFF791FE51
:102E9000641C0098A4B2201AB84225D10298009C64
:102EA000401C80B2029023E00398174900EB4000D9
:102EB00001EB8000DAE71549039803E00398144911
:102EC00000EB400001EB0010D0E708B1049800E0EF
:102ED0000E9800F07BF808F10100C0B2B0FBF7F1EA
:102EE000804607FB118050B1761CF6B2082EC0D385
:102EF0006D1CADB25D45A9D305B0BDE8F08F4FF0B4
:102F00000008F5E7CC7A0008985E00080C6300081A
:102F1000FC6800082DE9FF4F83B00026DDE911B8F9
:102F20001D4682464FEA58073446B1462CE0281B1E
:102F3000401EC1B20A2002F0D7F80599B1FBF0F0AB
:102F40000A21B0FBF1F201FB120026B9691E8C4286
:102F500001DA58B101263030C2B204FB07A0CDF827
:102F600000B0CDE9018980B2109B08E0CDF800B037
:102F700004FB07A0CDE90189109B80B220220499AF
:102F8000FFF742FF641CE4B2AC42D0D307B0BDE807
:102F9000F08F2DE9FE4F9946DDE90D6714468A460C
:102FA0000546DDF830800CE0CDF800804B465146F8
:102FB0002846CDE90167FFF727FF05EB560085B2EC
:102FC000641C2278002AEFD1BDE8FE8F10B50446BC
:102FD000000A00F019F8E0B2BDE8104000F014B8A3
:102FE00070B5084C0546002280212046FEF7FDFB07
:102FF000284600F009F82046BDE8704001228021F3
:10300000FEF7F3BB000C01402DE9F041144E0546DC
:103010004FF48077002239463046FEF7E6FB002465
:10302000002210213046FEF7E0FB280601D50122E0
:1030300000E0002220213046FEF7D7FB01221021BC
:103040003046FEF7D2FB6806641C050EE4B2082C7D
:10305000E6D339463046BDE8F0410122FEF7C5BB54
:10306000000C014038B50446007800280AD04FF61D
:10307000FF7000210090A02380220846FFF7A4FDE6
:103080000020207038BD0000FEB500251C480095CA
:1030900001951A4902950160891581600573012423
:1030A0000475032606614FF460214560C0E90641BE
:1030B000FEF720F808B1FDF72DFF08208DE831005C
:1030C00069460F48FDF794FF08B1FDF723FF09207B
:1030D00000900220019069460948FDF789FF08B178
:1030E000FDF718FF0720CDE9000669460448FDF703
:1030F0007FFF002801D0FDF70DFFFEBD0024014039
:103100005C0000202DE9F04385B000253B48009588
:10311000019502950395816941F0100181618169F2
:1031200001F010010491816941F020018161816900
:1031300001F020010491816941F0040181618169FC
:1031400001F004010491816941F008018161806905
:10315000DFF8AC8000F00800049001224FF46041D9
:103160004046FEF742FBDFF89C9048F2F037002221
:1031700039464846FEF739FB01244FF42040CDE99B
:1031800000040226CDE9024669464046FEF738FAB9
:10319000A0038DE8710069464046FEF731FA4220EF
:1031A00000901948CDE90104DFF860806946404687
:1031B000FEF726FA3020CDE9000569460294404624
:1031C000FEF71EFA01AA009782E870006946484699
:1031D000FEF716FA00220A210720FEF777FB0720E8
:1031E000FEF766FB00220A211720FEF76FFB17206F
:1031F000FEF75EFB05B0BDE8F08300000010024062
:1032000000100140000C01400000211000080140A6
:1032100010B58EB000240794089409940A940B9476
:103220001C2168460C94FCF794FF20484FF0804125
:10323000016040F2CF21C0E901144FF4FA61C0E906
:10324000031480218161FEF7F1FE08B1FDF762FEF3
:103250004FF48050079007A91448FEF75DFF08B1AE
:10326000FDF758FE1148FFF704F908B1FDF752FECB
:103270000B940BA90D480C94FEF7A4FE08B1FDF7C2
:1032800049FE6020009040F2E730CDE901040022C1
:10329000694606480494FFF786F808B1FDF73AFE40
:1032A0000248FFF75BF80EB010BD00008C00002054
:1032B0000C4810B50A4901604FF4E131416000212A
:1032C00081600C22C160C0E904128161C161FFF715
:1032D000A7FA002803D0BDE81040FDF71BBE10BDC3
:1032E00000380140D40000200C4810B50A490160A4
:1032F0004FF4E1314160002181600C22C160C0E9DE
:1033000004128161C161FFF78BFA002803D0BDE888
:103310001040FDF7FFBD10BD004400401C0100201F
:10332000FEE7FEE770477047FEF76ABA30B593B024
:1033300028216846FCF70DFF14210AA8FCF709FFB5
:10334000002501200F9510951195010412958DE827
:10335000230004904FF4E010CDE9081002240794F4
:103360006846FEF789FC08B172B6FEE70AA90F208D
:1033700081E831004FF48060CDE90D0502210AA8F3
:10338000FEF79EFB08B172B6FEE74FF400401190C5
:103390000F940FA8FEF71EFB002801D072B6FEE7BF
:1033A00013B030BD704700000148FEF724BF000095
:1033B0008C000020F0B50268164B174C174D4FF0EB
:1033C0008047984205D0B84203D0A04201D0A8421D
:1033D00003D122F070064A683243984205D0B842C1
:1033E00003D0A04201D0A84203D122F44074CA689D
:1033F00022434C6922F08002224302608A68C26242
:103400000A688262984201D1096901630121416120
:10341000F0BD0000002C0140000400400008004006
:1034200010B501F01F030121046A99408C43046226
:10343000016A9A401143016210BD10B5846842EAE6
:10344000032224F47F440A432243826010BD826831
:1034500022F070020A4342F00701816070470000C9
:1034600030B5036A026A22F001020262426884698E
:1034700024F073050C682C4323F002058B682B4362
:103480000A4DA8420BD123F00805CB6822F4407204
:103490002B434D6923F0040315438A692A43426094
:1034A000846149684163036230BD0000002C014023
:1034B00030B5026A036A23F010030362436884692B
:1034C0000D6824F4E64444EA05248D6822F02002C5
:1034D00042EA05120B4DA8420ED1CD6822F08002BF
:1034E00042EA05124D6923F4406343EA85038D697E
:1034F00022F0400243EA85034360846149688163A6
:10350000026230BD002C014030B5036A026A22F429
:10351000807202624268C46923F4007324F0730568
:103520000C682C438D6843EA05230C4DA8420ED14C
:10353000CD6823F4006343EA05234D6922F4405229
:1035400042EA05128D6923F4806342EA0512426063
:10355000C4614968C163036230BD0000002C0140B2
:1035600030B5046A026A22F4805202624268C3697A
:103570000D6823F4E64343EA05238D6824F40054E0
:1035800044EA0534064DA84204D14D6922F4804234
:1035900042EA85124260C36149680164046230BD39
:1035A000002C014010B5036A046A24F0010404628F
:1035B000846924F0F00444EA021423F00A020A4366
:1035C0008461026210BD10B5036A046A24F010041D
:1035D0000462846923F0A00324F4704444EA0232B4
:1035E00043EA01118261016210BD10B5406A0021F9
:1035F000C185C184FEF7DCFF10BD01680C3151E8C4
:10360000002F22F4907241E80023002BF5D10168CD
:10361000143151E8002F22F0010241E80023002B71
:10362000F5D1016B012909D101680C3151E8002F56
:1036300022F0100241E80023002BF5D1202180F870
:10364000421000210163704708B590F8421022290A
:1036500001D0022008BD82684FF480539A4201D104
:10366000016921B1816A9A421BD04AB10AE002681D
:10367000816A5268C2F308020A80816A891C08E0E4
:10368000026972B10268526802F07F020A70816AB0
:10369000491C8162C18D491E0904090CC18503D0F2
:1036A0001BE002685268F1E70168CA6822F0200254
:1036B000CA600168CA6822F48072CA6001684A69F7
:1036C00022F001024A61202180F84210002141636A
:1036D000026B012A03D0FFF791F9002008BD0163B6
:1036E00001680C3151E8002F22F0100241E800235C
:1036F000002BF5D101680A68D20602D50A6849682C
:103700000091818DFEF753FFE7E7000070B5044696
:1037100000680169E26821F44051114301612169A7
:10372000A0680843616908432168CA6841F20C63D4
:103730009A430243CA6020684169A26921F440713A
:10374000114341611E492068884202D1FEF75EFAAA
:1037500001E0FEF74BFA00EBC00101EB00126068DC
:1037600064218000B2FBF0F3B3FBF1F36FF01806B5
:103770007343B2FBF0F5B2FBF0F605EB83053223A1
:1037800003EB0515B5FBF1F5B6FBF1F605F0F00519
:1037900005EB0615B2FBF0F6B2FBF0F0B0FBF1F072
:1037A0006FF01802504306EB800003EB0010B0FBF3
:1037B000F1F0216800F00F002844886070BD00001F
:1037C000003801402DE9F041984617460E46044660
:1037D000069D27E0681C25D02DB1FEF70BF8A0EB65
:1037E0000800A8421ED920680C3050E8001F21F4C0
:1037F000D07140E80012002AF5D12068143050E85A
:10380000001F21F0010140E80012002AF5D120201C
:1038100084F8410084F84200002084F8400003202E
:10382000BDE8F0812068006836EA000004D000207E
:10383000B842CFD00020F3E70120F9E710B502F03D
:10384000A9FABDE810400148FEF7B4BE1C010020F3
:10385000FEE700000FB4054B10B503A9044A029817
:1038600000F002F910BC5DF814FB0000314B0008B9
:10387000540000200FB4084B10B504A902AA039805
:1038800000F0F2F8044602A9002000F084FC204673
:1038900010BC5DF814FB0000974100080907090EF1
:1038A000002804DB00F1E02080F80014704700F0ED
:1038B0000F0000F1E02080F8141D704700487047A9
:1038C0005800002002E008C8121F08C1002AFAD1DF
:1038D00070477047002001E001C1121F002AFBD190
:1038E000704700002DE9FF5F82B00021DDE9043060
:1038F000020DDDF840B0034318D044F61050A2F298
:10390000FF3242431514119801281FD0A5EB0B007C
:10391000401C5FEA000A4FF000064E4FDFF8389176
:10392000B046504615D5CAF1000413E011980124A1
:103930004AA3012801D16FEA0B010298119AC0E94C
:103940000031C0E9024206B0BDE8F09FCBF10000B3
:10395000DFE704460021404A491842EB0450CDE914
:10396000001012E0E00707D032463B464046494689
:10397000FCF708FE8046894632463B46104619460B
:10398000FCF700FE06460F466410002CEAD1DDE984
:103990000401DDE90023BAF1000F06DAFCF7F2FDBD
:1039A00042464B46FCF7EEFD05E0FCF7B4FF42460D
:1039B0004B46FCF7B0FF04460E460022284BFCF7AE
:1039C00053FE03D84FF0FF30014607E00022254B9D
:1039D00020463146FCF72FFDFDF70CF8102409E0D6
:1039E000002C0ADB0A220023FCF76CFE039B30321A
:1039F0001A55641E50EA0102F2D1641C039AC4F104
:103A000011031444119A012A03D0012208430DD155
:103A10000AE0084304D000204FF0110B119072E728
:103A2000A3EB0B056D1E0DE05B4504DD4FF00002BE
:103A300005F1010504E003DA4FF00002A5F10105EC
:103A4000002AECD002981199C0E90231C0E9004582
:103A500079E70000000014400000F03F3000000053
:103A60000000F0430000E03F2DE9FF4F95B09B467A
:103A70008946064600250FE2252877D100242746EF
:103A8000F84A0121059400E0044316F8013F203B69
:103A900001FA03F01042F7D130782A2811D06FF0E4
:103AA0002F033078A0F13002092A16D8059A44F085
:103AB000020402EB820203EB42021044761C0590E2
:103AC000EFE759F8042B0592002A03DA504244F438
:103AD0000054059044F00204761C30782E2816D14C
:103AE00016F8010F44F004042A280DD06FF02F02BD
:103AF0003078A0F13003092B09D807EB870302EBDC
:103B00004303C718761CF3E759F8047B761C30781A
:103B10006C280FD006DC4C2817D068280DD06A28F6
:103B200014D104E0742810D07A280FD10DE044F4A9
:103B300000140AE044F4801401E044F44014727864
:103B4000824202D104F58014761C761C30786628F7
:103B50000BD013DC582877D009DC002875D0452815
:103B6000F6D04628F4D047281AD19DE118E0632802
:103B700035D0642879D0652812D195E1702873D0AA
:103B800008DC6728F1D069286FD06E280DD06F2827
:103B900006D1B5E073282CD0752875D0782874D05C
:103BA0005A46179990476D1C75E1C4F302500228DC
:103BB00009D003280DD0D9F8001004280DD00D60CD
:103BC00009F1040967E1D9F80010EA17C1E90052C8
:103BD000F6E7D9F800100D80F2E70D70F0E719F85C
:103BE000041B8DF8001000208DF80100EA4601202A
:103BF00003E059F804AB4FF0FF3061074FF00001CC
:103C000002D40DE008F101018846B9420FDA80457F
:103C1000F8DB1AF808100029F4D108E008F10101D6
:103C200088468142FADB1AF808100029F6D1059877
:103C30005B46A0EB080721463846179A00F094FA35
:103C4000284400EB080507E04DE029E10DE01AF8F3
:103C5000010B5A4617999047B8F10108F7D25B4615
:103C600021463846179A13E142E00A220092C4F333
:103C700002524FF0000A022A08D059F804CB032A56
:103C80004FEAEC710AD00DE029E02AE009F10701C2
:103C900021F00702F2E802C1914609E00FFA8CFC1C
:103CA0004FEAEC71042A03D14FFA8CFC4FEAEC7115
:103CB000002907DA0A460021DCF1000C61EB020161
:103CC0002D2202E0220504D52B228DF804200122AA
:103CD00003E0E20701D02022F7E7904659E00A21ED
:103CE00002E010220DE010214FF0000A00910BE0DD
:103CF00010224FF0000A44F004040827009203E069
:103D000008224FF0000A0092C4F30252022A05D0A2
:103D100059F804CB0021032A08D009E009F1070172
:103D200021F00702F2E802C1914605E01FFA8CFC7F
:103D3000042A01D10CF0FF0C4FF00008220728D50F
:103D4000702806D0009B83F0100353EA0A0305D0C5
:103D50000EE040228DF80420012208E05CEA010216
:103D600006D030228DF804208DF8050002229046FE
:103D7000009B83F0080353EA0A030AD15CEA0102BC
:103D800001D1620705D530228DF804204FF00108DB
:103D90007F1E582804D034A003900EA802900DE096
:103DA00036A0F9E753466046009AFCF78BFC844640
:103DB0000398825C0298401E029002705CEA010047
:103DC000F0D1029806A9081A00F1200A600702D56E
:103DD00024F4803400E00127574502DDA7EB0A00F8
:103DE00000E0002000EB0A01009005984144401AD1
:103DF0000590E00306D45B462146179A059800F02B
:103E0000B3F90544002706E001A85A46C05D17999A
:103E100090476D1C7F1C4745F6DBE0030CD55B46E5
:103E20002146179A059800F09FF9054404E03020D8
:103E30005A46179990476D1C0099481E009000291A
:103E4000F5DC08E0029802995A460078491C029174
:103E5000179990476D1CBAF10001AAF1010AF1DC33
:103E600065E100000928010030313233343536373E
:103E700038396162636465660000000030313233B6
:103E80003435363738394142434445460000000056
:103E900000F058F90544761C307800287FF4ECAD2A
:103EA00019B02846BDE8F08F620700D4062709F153
:103EB000070222F0070CFCE80223E14603F0004869
:103EC0005FEA080C02D00FF2702C0DE05FEA045C90
:103ED00002D50FF2682C07E05FEAC47C02D00FF233
:103EE000602C01E0AFF2700C4FF0FF3823F000437C
:103EF000CDF850C065280CD006DC452809D04628EE
:103F00001DD047283DD13DE0662818D067287ED1D6
:103F100038E00021112F01DB112000E0781CCDE9F1
:103F2000000106A90EA8FFF7DDFCDDE90F010E9ADE
:103F300003910021009207F1010A04914DE04FF036
:103F400000400097CDE9011006A90EA8FFF7CAFCB2
:103F5000DDE90F0203920E9B11990022DDF80CA0FF
:103F60000093049211B9791C00EB010AB7EB0A0027
:103F700004D4C0F1FF3007F1010A0490AAEB070056
:103F8000019044E0012F00DA01270021112F01DD0B
:103F9000112000E03846CDE9000106A90EA8FFF780
:103FA000A1FCDDE90F010E9A03910021049100921A
:103FB000BA4621070CD40399514500DA8A46BAF172
:103FC000010F05DD009AAAF10101515C302908D0EA
:103FD000B84202DA10F1040F06DA0121CDE901102E
:103FE00015E0AAF10101E9E7002805DC0499014484
:103FF0000491AAEB000102E0411C514500DD8A4614
:104000000499401A401C01904FF000400290200794
:1040100004D40198504501DBCDF8048000208DF8D0
:104020004F0002980DF14F07B0F1004F25D02B2023
:104030000E9002984FF0020800280CDA40420290DD
:104040002D200E9007E00A210298FCF725FB303165
:10405000029007F8011DB8F10001A8F10108F2DC97
:1040600002980028EFD1791E0E980870307800F081
:10407000200040F0450007F8020D12A8C01B00F117
:1040800007081498007800B1012000EB0A0101989C
:1040900001EBE07105984144401A401E0590E00391
:1040A00006D45B462146179A059800F05DF8054452
:1040B0001498007818B15A46179990476D1CE00380
:1040C00024D55B462146179A059800F04DF8054423
:1040D0001CE00498002807DBDDE90301884203DDCA
:1040E0000098405C179901E0179930205A46904794
:1040F000049805F10105401C04900198401E0190B0
:1041000004D12E205A46179990476D1CBAF1000130
:10411000AAF1010ADDDC05E017F8010B5A461799F0
:1041200090476D1CB8F10001A8F10108F4DC5B4672
:104130002146179A0598ABE62D0000002B000000E1
:10414000200000002DE9F041044600251E461746D8
:10415000880404D405E039462020B0476D1C641E55
:10416000F9D52846BDE8F0812DE9F0410446002547
:104170001E469046C80301D5302700E0202788045A
:1041800004D505E041463846B0476D1C641EF9D59C
:104190002846BDE8F0810A68531C0B601070704718
:1041A00010B50648FCF7B8FE0448FDF70BF9BDE86A
:1041B00010400A210148FDF767B800005C000020AC
:1041C00010B50748FDF7FEF80A210548FDF75CF831
:1041D0000348FCF78BFF034980B2088010BD000044
:1041E0005C0000203C0000202DE9F04F87B04FF02C
:1041F0000005DDF840801E4693460C4607000195F9
:104200000495A94602950FD076B15FEA08000BD05D
:104210000A4601A9384601F00AFC0198A0422CD2B6
:10422000395C5B2902D028E0AFF30080401C01908C
:10423000224601A9384601F0FAFB0DF1080A19E0FF
:1042400004AB224601A93846CDF800A000F0A0FF3B
:1042500098B1D94506D10498306002990125C8F873
:1042600000100AE0224601A9384601F0F6FB20B111
:1042700009F101090198A042E2D307B02846BDE840
:10428000F08F000070B50C4D00244FF480460022E2
:1042900031462846FDF7A9FA6420FDF763F90122AB
:1042A00031462846FDF7A1FA6420FDF75BF9641C4E
:1042B000062CECDB70BD00000010014070B50A4D0B
:1042C000044610212846FDF78BFA28B12021284604
:1042D000FDF786FA18B105E02088401C01E020882F
:1042E000401E2080208870BD0008014070B50A4D36
:1042F000044610212846FDF773FA28B120212846EC
:10430000FDF76EFA18B105E020880A3001E0208838
:104310000A382080208870BD0008014002E0082192
:10432000491EFDD2401EFAD27047000070B500242D
:1043300000F038F84FF40045124E04E0641CE4B27B
:104340000120FFF7EBFF29463046FDF749FA10B18F
:10435000642CF3D30FE0642C0DD2002404E0641C21
:10436000E4B20120FFF7DAFF29463046FDF738FABC
:1043700018B1642C04D3012070BD642CEFD3FAE78C
:10438000002070BD000C014010B500F091F84FF412
:104390007A70FDF7E7F800F08BF8BDE81040FFF702
:1043A000C5BF00001FB50020019003904FF40040EE
:1043B00000900120029069460148FDF721F91FBDD8
:1043C000000C01401FB5002002904FF40040009007
:1043D000012001900320039069460248FDF710F97F
:1043E0001FBD0000000C014070B500244FF40045D3
:1043F000134E04E0641CE4B20120FFF78FFF29464E
:104400003046FDF7EDF908B1642CF3D3002404E045
:10441000641CE4B20120FFF781FF29463046FDF716
:10442000DFF908B9642CF3D32820FFF777FF29467A
:104430003046FDF7D5F9002800D0012070BD0000FE
:10444000000C014070B5002004464006050EFFF741
:10445000CBFF641C2843E4B2082CF6D370BD2DE9D1
:10446000FC410D46064600F023F8FFF75FFF10B150
:104470000120BDE8FC8100246F46FFF7E3FF3855BB
:10448000641CE4B2052CF8D39DF800109DF80100DF
:104490009DF803300A189DF8020003441A449DF861
:1044A00004309A4201D1297030700020E1E7000009
:1044B00070B5FFF787FF0A4D4FF4004400222146F4
:1044C0002846FDF792F91420FDF74CF80122214609
:1044D0002846FDF78AF9BDE870401E20FFF71EBF91
:1044E000000C014070B54FF47A76002433461E224A
:1044F00010A11848FEF783FA174D04E0641CA4B21B
:104500000120FDF72FF8287860B1B4420CD24FF4A7
:10451000FA50FDF727F811A11148FBF725FE18B155
:10452000002402E0B442E9D30124688801F022FCAF
:10453000204670BD41542B43574A41503D22676786
:1045400038323636222C2238383838383838382243
:104550000D0A00001C0100201C0000204F4B000031
:104560006401002070B54FF47A7600243346492266
:1045700010491148FEF743FA104D04E0641CA4B240
:104580000120FCF7EFFF287860B1B4420CD241F271
:104590008830FCF7E7FF0AA10A48FBF7E5FD18B1F0
:1045A000002402E0B442E9D30124688801F0E2FB70
:1045B000204670BDA49700081C0100201C000020AC
:1045C0004F4B0000640100202DE9FE43564800686F
:1045D000C16841F02001C16000244FF6FF760C2530
:1045E0000096CDE901541F2350A205212046FEF775
:1045F000D0FC4FF47A7702E03846FCF7B3FF56A2BE
:104600000D2156A000F0DCF90028F5D10096CDE987
:1046100001541F2355A20521FEF7BBFC02E03846DA
:10462000FCF7A0FF4CA206215AA000F0C9F900280F
:10463000F5D10096CDE901541F2358A20521FEF7BC
:10464000A8FC02E03846FCF78DFF43A211215EA0D2
:1046500000F0B6F90028F5D10096CDE901541F23EA
:104660005EA20521FEF795FC41F2883702E038464C
:10467000FCF778FF00F06CF90028F8D10096CDE93E
:1046800001541F235CA20521FEF783FC41F6583735
:1046900002E03846FCF766FFFFF724FF0028F8D158
:1046A0000096CDE901541F235AA20521FEF771FCA3
:1046B0004FF4FA6702E03846FCF754FF26A2C821FF
:1046C0005C4800F07DF90028F5D10096CDE9015451
:1046D0001F2359A20521FEF75CFC4FF4FA5802E0B3
:1046E0004046FCF73FFFFFF73DFF0028F8D100965A
:1046F000CDE901541F2359A20521FEF74AFC02E02F
:104700003846FCF72FFF14A246215D4800F058F907
:104710000028F5D10096CDE901541F2359A20521A7
:10472000FEF737FCBDE8FE831C010020312E534507
:104730005454494E472053544154494F4E204D4FF5
:104740004445202020202020202020202020202020
:1047500020202020000000004F4B000041542B433C
:10476000574D4F44453D310D0A000000322E434C59
:104770004F53452045535038323636204543484F35
:104780002020202020202020202020202020202029
:1047900020202000415445300D0A0000332E4E4F9A
:1047A000204155544F20434F4E4E454354205749C6
:1047B00046492020202020202020202020202020AA
:1047C000202020202000000041542B435741555405
:1047D0004F434F4E4E3D300D0A000000342E5245DF
:1047E000534554204553503832363620202020205F
:1047F0002020202020202000352E434F4E464947C0
:104800002057494649204E4554574F524B202020AF
:1048100020200000362E4D5154542055534552202F
:10482000434F4E4649472020202020202020202092
:1048300020200000E0950008372E434F4E4E4543A0
:1048400054204D5154542042524F4B455220202069
:10485000202020202020202020200000382E53550A
:104860004253435249424520544F5049432020204F
:104870002020202020202020202020202020200058
:10488000AC960008392E4553503832363620494E02
:104890004954204F4B21212120202020202020205E
:1048A0002020202020202020202020202020202008
:1048B0002020000030B5A1B0002020908021684663
:1048C000FBF747FC174D2878012824D1A888401C05
:1048D000A8800120FCF746FEA8880528F6D312A17F
:1048E0001548FBF741FCB0B16B4620AA13491248AA
:1048F000FBF762FC6A4612A02099FEF7ABFF684600
:10490000FBF744FC2099884205D1C9B2684600F003
:10491000A3FD044600E00224688801F02BFA21B0D0
:10492000204630BD1C0000202B4D5154545355429D
:10493000524543563A0000006401002008980008E0
:104940006C656E3A25642C6D73673A25730D0A0009
:1049500070B500244FF47A73082212A11448FEF7B0
:104960004EF8144D4FF4FA6604E0641CA4B2012022
:10497000FCF7F8FD287860B1B4420CD241F28830DF
:10498000FCF7F0FD0CA10D48FBF7EEFB18B100247D
:1049900002E0B442E9D30124688801F0EBF9204633
:1049A00070BD000041542B5253540D0A000000000A
:1049B0001C0100201C0000204F4B0000640100205F
:1049C0002DE9F04117460A464FF47A760146002554
:1049D00033461548FEF713F8144C03E001206D1C14
:1049E000FCF7C0FD207818B1B54204D3012514E0CE
:1049F000B542F3D3FAE74FF4FA75A088401CA080C3
:104A00000120FCF7AFFDA088A842F6D30225394665
:104A10000748FBF7A9FB00B10025608801F0AAF95F
:104A20002846BDE8F08100001C0100201C00002089
:104A300064010020F0B52E482B4A2C49C3B00088F1
:104A4000128809888DE807002A4800263446037832
:104A500029482A49027803A8FEF70CFF03A8FBF7B0
:104A600095FB82B24FF47A752B4603A92448FDF7D3
:104A7000C6FF03A8FBF78AFB82B22B4603A9214895
:104A8000FDF7BDFF6F10204D04E0641CA4B20120AF
:104A9000FCF768FD287818B1BC4204D301261CE05D
:104AA000BC42F2D3FAE73220FCF75CFD17A11848AC
:104AB000FBF75AFB01004FF0000002D0002668709F
:104AC0000BE06978491CC9B26970052905D1687085
:104AD00010A0FEF7BFFEFFF777FD688801F04AF9E6
:104AE00043B03046F0BD00002E0000202C00002016
:104AF0002A0000202500002024000020F496000851
:104B00001C010020D40000201C0000204F4B00009E
:104B1000640100205245434F4E4E454354204D51B1
:104B200054542042524F4B45522121210D0A00007E
:104B300013B54FF6FF73012269460248FDF75FFF88
:104B400000981CBDD40000206E2817D006DC222857
:104B50000AD05B280CD0662804D10DE0742809D057
:104B60007B2803D002207047012070470620704741
:104B700007207047032070470420704705207047C6
:104B8000A0F16101052902D92031052902D80A3195
:104B9000C8B270473038092801D8C0B27047102019
:104BA0007047000006484FF400510288054803880A
:104BB00005489A4201D9002200E00122FCF715BE07
:104BC0002A0000203A0000200010014008B5FCF740
:104BD0001FFEFEF7ABFBFEF795FAFEF719FBFEF79B
:104BE00067FBFEF781FBFEF74FFA01F0F7F8FEF7DF
:104BF0000BF84FF6FF770021A0238022084600978C
:104C0000FDF7E2FF134C144D00262078012812D145
:104C10002670287880F001002870012811D000F05B
:104C2000C9F900F0EDF80021A02380220846009782
:104C3000FDF7CAFF26702878012807D000F0E0F8B9
:104C4000E3E700F0BFF900F009F8ECE700F006F840
:104C5000DBE7000044000020500000202DE9FE4367
:104C6000514807214FF000080078B0FBF1F201FB3A
:104C7000120010B100F06AFF84E04C48FEF7F2F930
:104C80004A49491E481EFFF7EAFBFFF799FA474CCD
:104C9000241F2081FFF794FA6081FFF791FAA08129
:104CA0004348008801286AD147460C264FF6FF7515
:104CB0008DE8E0001F233FA205210820FEF769F9D7
:104CC0008DE8E0001F233DA214210820FEF761F9C2
:104CD0008DE8E0001F233BA223210820FEF759F9AD
:104CE0008DE8E0001F2339A232210820FEF751F998
:104CF0008DE8E0001F2337A241210820FEF749F983
:104D00001020CDE900501F2334A25F210297082014
:104D1000FEF73FF94FF478470097CDE9015603239A
:104D2000A27805213C20FEF7F5F80097CDE9015661
:104D30000323E27814213C20FEF7ECF80097CDE93C
:104D400001560423228923213C20FEF7E3F8FFF7D4
:104D500029FF0097CDE901560423628932213C20C6
:104D6000FEF7D8F80097CDE901560423A289412126
:104D70003C20FEF7CFF8E178A07800F03BFA012064
:104D80006071A0711848017801290AD180F800806B
:104D9000FFF750FE002804D0BDE8FE4313A0FEF745
:104DA00059BDBDE8FE83000045000020260000201C
:104DB0003600002074656D70203A200068756D69BA
:104DC000203A20006C7578203A20000070706D2029
:104DD0003A2000006462203A200000006D6F646594
:104DE000203A206175746F00300000206D736720D9
:104DF00073656E64206572726F720D0A00000000A8
:104E00002DE9FE435348FEF72DF9FFF753FD514CB2
:104E10000025641F01280FD04F4E3078012803D1A0
:104E2000207800F09FFB35704C4E3078012803D17C
:104E3000607800F0A5FB3570494E3088012805D117
:104E40004449891E481EFFF70AFB3580FFF7B8F971
:104E50002081FFF7B5F96081FFF7B2F9A0814FF02B
:104E60000109A8462F4684F804900C264FF6FF75DA
:104E70008DE8E0001F233BA205210820FEF789F8FA
:104E80008DE8E0001F2339A214210820FEF781F8E5
:104E90008DE8E0001F2337A223210820FEF779F8D0
:104EA0008DE8E0001F2335A232210820FEF771F8BB
:104EB0008DE8E0001F2333A241210820FEF769F8A6
:104EC0001020CDE900501F2330A25F210297082057
:104ED000FEF75FF84FF478470097CDE901560323BA
:104EE000A27805213C20FEF715F80097CDE9015680
:104EF0000323E27814213C20FEF70CF80097CDE95B
:104F000001560423228923213C20FEF703F8009751
:104F1000CDE901560423628932213C20FDF7FAFFD6
:104F20000097CDE901560423A28941213C20FDF7D9
:104F3000F1FF1A480178012907D180F80080FFF7B6
:104F400079FD10B116A0FEF785FC84F80490BDE849
:104F5000FE830000270000203100002032000020E6
:104F60003800002074656D70203A200068756D6906
:104F7000203A20006C7578203A20000070706D2077
:104F80003A2000006462203A200000006D6F6465E2
:104F9000203A206D616E75616C00000030000020C9
:104FA0006D73672073656E64206572726F720D0A8F
:104FB000000000000122D1030148FCF716BC0000EC
:104FC0000010014000224FF400410148FCF70DBCE5
:104FD0000010014010B50448FBF79EFFBDE81040EB
:104FE0000148FCF7EFB900005C0000202DE9F04F0C
:104FF00085B05FEA000A4FF00000DDE90E98CDE9C8
:1050000002101C4615464FF001070646049037D0A3
:10501000ADB35FEA090033D05FEA080030D071B366
:105020006CB30DF1080B0498A04254D2285C5B28A5
:1050300004D00498014615B32CBB21E04FF0FF309B
:105040000190049801AB401C0490224604A9284614
:1050500000F036FB0198002824DB0498A04221D2FE
:10506000295C5D291ED1401C0490CDF800B0DDE91B
:1050700001210AEB060003ABFFF7B6F81DE0FFE7DE
:10508000AFF30080401CA04204D22A5C2E2A01D03B
:105090005B2AF7D1814205D2431A02460490601E72
:1050A000824201D106271BE003AACDE9002B6A1832
:1050B0000AEB0600029900F077F950B10398064414
:1050C0000498A042AFD2295C2E29ACD1401C049098
:1050D000A9E7042704E0C9F800600299C8F80010A5
:1050E00005B03846BDE8F08F0246012000E050438D
:1050F000491EC9B2FBD270472DE9FC5F1F46DDE9AE
:105100000DB9DDF830A016460D465FEA000829D03B
:1051100045B33EB337B35FEA0A0023D05FEA0B0022
:1051200020D05FEA09001DD02C6801A940460194F7
:1051300000F0BBFC002813D0601C38600198324698
:10514000001B801ECAF8000001A9404600F06FFC59
:105150000198B04203D218F800103A2904D0002078
:10516000BDE8FC9FAFF30080401C0190324601A9CE
:10517000404600F05CFC5B46324601A94046CDF853
:10518000009000F005F80028EAD001992960E7E7CF
:105190002DE9F84F1F46DDF8288091460D465FEA5D
:1051A000000A4FF0010610D07DB1B9F1000F0CD00C
:1051B0005FB15FEA080008D02C684A46694650464D
:1051C000009400F0EFF968B901E0AFF300804A46BF
:1051D0006946504600F020FA012803D000263046E8
:1051E000BDE8F88F3C600098011BC8F800100098DB
:1051F0002860F4E72DE9FE4FDFF840918A4600274A
:10520000B9F80010102580464FF6FF744FF4784629
:10521000884202D933464AA205E0B9F8021088450F
:105220001BD233464AA28DE8B00028210820FDF7A2
:10523000B0FE00960223424650210820CDE90145E8
:10524000FDF768FEFFF71EF8FFF708FD0021A02319
:10525000802208460094FDF7B7FCB9F80410C84650
:105260008A4502D933463EA205E0B8F806108A45C1
:105270001BD233463EA28DE8B00028210820FDF75E
:1052800088FE00960223524650210820CDE90145B0
:10529000FDF740FEFEF7F6FFFFF7E0FC0021A0233C
:1052A000802208460094FDF78FFC35480188B8F845
:1052B000080081421BD98DE8B000334631A2282175
:1052C0000820FDF766FE0096022352465021082072
:1052D000CDE90145FDF71EFEFEF7D4FFFFF7BEFC4A
:1052E0000021A023802208460094FDF76DFCDFF822
:1052F000A490B8F80A00B9F8001081421CD98DE8D2
:10530000B000334624A228210820FDF742FE009673
:10531000CDE901450223B9F8002050210820FDF70E
:10532000F9FDFEF7AFFFFFF799FC0021A0238022D3
:1053300008460094FDF748FCBDE8FE8F10000020F1
:1053400074656D7020746F6F206869676800000075
:1053500074656D7020746F6F206C6F7700000000B3
:1053600068756D6920746F6F206869676800000058
:1053700068756D6920746F6F206C6F770000000096
:105380002E0000206E6F69736520746F6F2068694E
:10539000676800002C00002070706D20746F6F2013
:1053A00068696768000000002DE9FF4F89B04FF081
:1053B0000006DDE916870C4605000396049605965F
:1053C00011D00B9878B15FEA08000CD05FB10A46A3
:1053D00003A9284600F02BFB0398A04238D2295C91
:1053E0007B2902D034E0AFF30080401C03902246BA
:1053F00003A9284600F01BFB0DF114090DF1100A5A
:105400000DF1180B21E0CDF800B0CDE901A908ABF2
:10541000224603A92846FFF76FFEC8B1069A0C98EA
:1054200090420CD1089829180B9800F06FFB30B10E
:105430000499C8F8001005980126386008E0224653
:1054400003A9284600F009FB10B10398A042DAD363
:105450000DB03046BDE8F08F2DE9F34F89B08B4693
:105460004FF001090998FDF754FB012858D12E4946
:105470000024A046D1E9000107AF05AD03AECDE998
:10548000050100BF55F82400FAF780FE07EB840100
:1054900006EB8402CDE900210346CDF8088055F8DB
:1054A000242059460998FDF72BFB01282FD156F8E7
:1054B000240057F8241010F801A000F8018056F8D5
:1054C000243057F8242055F8241018A0FEF7C2F90C
:1054D00056F8240057F8241000F801A055F82400CD
:1054E00018A1FAF75AFE30B155F8240018A1FAF7BE
:1054F00054FE30B10BE056F82400FAF78FFF17493D
:1055000004E056F82400FAF789FF15490870641C76
:10551000022CB7DB039808B9049808B14FF00009D2
:105520000BB04846BDE8F08F905E0008466F756E80
:10553000643A20257320257A75202D3E2025730A94
:1055400000000000706172616D732E6C6564000074
:10555000706172616D732E73673930002200002014
:1055600023000020054B4FF40051012803D00122F5
:105570001846FCF73AB90022FAE700000010014093
:1055800004490128096802D0FA2048637047962030
:10559000FBE700008C00002000210148FCF798BFC9
:1055A0008C0000202DE9F84315460E468046002465
:1055B00000F07BFAF8B90427404611A32A46314689
:1055C000009700F012F9B0B9052000900EA32A460A
:1055D0003146404600F009F968B90DA32A46314624
:1055E0004046009700F001F928B92A463146404666
:1055F00000F018F900B101242046BDE8F88300004E
:10560000747275650000000066616C7365000000CF
:105610006E756C6C000000002DE9F0438DB01746EC
:105620000E465FEA00084FF000054FF0FF3405D04A
:1056300026B11FB13068E946099034E0AFF300802D
:1056400018F80030401C09905B2B06D05D2B0DD064
:105650007B2B02D07D2B2ED108E0641C24B2202CA1
:1056600002D009F8043019E003251FE0002C21DDE9
:1056700019F804007B2802D05B2803D01BE07D2BA7
:1056800002D018E05D2B16D1641E24B23A4609A957
:10569000404600F0E2F930B119F804303A4609A961
:1056A000404600F096F90998B842C9D30DB0284693
:1056B000BDE8F0830CB10225F8E701253060F5E77D
:1056C0002DE9F05F4FF0000A984617460E465FEA54
:1056D000000B554604D01EB117B13468A1461AE03C
:1056E000AFF300801BF80400A0F130010A2914D2A6
:1056F000B8F1000F0ED0002D0CDBFFF741FA0D4979
:1057000040B28D4204DC05EB850100EB410501E070
:105710004FF0FF35641CBC42E4D34C4507D94FF031
:10572000010A3460B8F1000F01D0C8F800505046AB
:10573000BDE8F09FCBCCCC0C2DE9FC410D460024FC
:1057400048B145B13AB12B68511E8B4223D2C15C9E
:105750005C2902D01FE0AFF30080C11849786629A8
:1057600016D00BDC2F2913D003DCA1B122290DD1D7
:105770000EE05C290CD0622908D109E06E2907D01F
:10578000722905D0742903D0752907D0202902D2A7
:1057900001249B1C2B602046BDE8FC8100938046C1
:1057A000164601AB694600F0DCF80028F3D0BDF8DE
:1057B00004004FF48067A0F55841B9420ED201AB06
:1057C00032466946404600F0CCF80028E3D0BDF8E8
:1057D0000400A0F55C40B84204D3DCE7A0F55C40CF
:1057E000B842D8D30124009BD4E770B50600049DCD
:1057F0000C464FF0000013D094B18AB183B12168F8
:1058000091420CD2521AAA4209D388192A46194643
:1058100000F07CF9002802D021682944216070BD85
:10582000AFF30080F0B585B00F46050014464FF089
:10583000000609D047B13CB138680390A04207D2B6
:10584000295C2D2902D003E0AFF30080401C0390B7
:10585000A0423FD2295C30290FD0002303A928465B
:10586000FFF72EFF060035D00398224600909042A5
:1058700011D2295C2E2904D00DE00126401C039092
:10588000F2E7401C0090002369462846FFF718FF06
:1058900008B100980390039822460090904217D2D6
:1058A000295C652901D0452912D1401C0090904205
:1058B00006D2295C2D2901D02B2901D1401C009052
:1058C000002369462846FFF7FBFE08B100980390C5
:1058D0000398386005B03046F0BDF8B514460D4663
:1058E000060004D01DB114B12868009033E0AFF376
:1058F000008022466946304600F0D7F800282CD0B8
:1059000022466946304600F092F80098A04202D242
:10591000315C3A2921D1401C00902246694630462C
:1059200000F085F80098A04204D2305C7B2815D0A6
:105930005B2813D0224669463046FFF733FE002825
:105940000BD022466946304600F087F8009929605E
:10595000002802D00098A042CBD3F8BD0098286060
:10596000F8BD2DE9F0474FF0000A99468846060039
:1059700055460FD0B8F1000F0CD05AB1B9F1000F55
:1059800008D0D8F80040A71D974216D2305D5C2899
:1059900002D012E0AFF300803019407875280CD1A6
:1059A000A41C08E0305DFFF7EBF8102805D040EAB2
:1059B000051085B2641CBC42F4D3BC4206D12DB1A3
:1059C000A9F800504FF0010AC8F800405046BDE861
:1059D000F087F8B51F4615460C4606467B2B01D0CE
:1059E0005B2F10D100F023F85B2F06D02A4621460A
:1059F0003046BDE8F840FFF770BF26B11CB115B1C5
:105A0000206800900EE0AFF300802A4669463046D9
:105A1000FFF7C8FD40B12A466946304600F01DF840
:105A200010B10098A842F0D300982060F8BD10B5DE
:105A300018B111B10AB10B680BE0AFF30080C45C80
:105A4000202C05D0092C03D00A2C01D00D2C02D11A
:105A50005B1C9342F3D30B6010BDF8B514460D46A2
:105A600006004FF000070BD055B14CB1FFF7DFFF38
:105A700028680090A04216D2315C2C2902D012E096
:105A8000AFF30080401C0090224669463046FFF785
:105A9000CEFF0098A04206D2315C7D2903D05D295B
:105AA00001D0012728603846F8BDF8B514460E46E7
:105AB00005004FF0000727D036B32CB330680090B4
:105AC000A0421FD2295C22291CD1401C009017E063
:105AD000295C222908D05C290BD0202912D39DB142
